S00E00006C61625F30332E7372656325
S11300000C942A000C9487010C9447000C9447002C
S11300100C9447000C9447000C9447000C94470040
S11300200C9447000C9447000C9447000C94470030
S11300300C9447000C9447000C9447000C94470020
S11300400C9447000C9447000C9447000C94470010
S11300500C94470011241FBECFE5D8E0DEBFCDBF0E
S113006010E0A0E6B0E0E2E4F4E002C005900D92F6
S1130070AE36B107D9F720E0AEE6B0E001C01D927C
S1130080A037B207E1F70E946D010C941F020C9493
S11300900000DA988FE99FE00197F1F700C00000B3
S11300A0DA9A0895CF93C82F2FEF49EF80E02150BB
S11300B040408040E1F700C000008BB39BB38778D9
S11300C089238BBB2BB33BB39C2F907F892F90E06C
S11300D0959587952778822B832B8BBBD9980E9483
S11300E049008BB39BB3877889238BBB2BB33BB37A
S11300F0277848E0C49FC0011124822B832B8BBB3B
S1130100D998CF910C944900813021F4603150F496
S113011080E805C0823031F4603220F480EC860F30
S11301200C945200089581E00C9452002FEF89EF53
S113013090E0215080409040E1F700C000008AB375
S113014086608ABB8BB3897F8BBB8FEF8ABB8FE5BD
S11301509AEE0197F1F700C000000E94930082E03C
S11301600E94520088E20E94520086E00E945200DF
S113017080E80E9452008FE00C945200CF93C82F65
S11301802FEF49EF80E0215040408040E1F700C06C
S113019000008BB39BB3877889238BBB2BB33BB312
S11301A09C2F907F892F90E0959587952778822BB7
S11301B0832B8BBBD998D99A0E9449008BB39BB3EC
S11301C0877889238BBB2BB33BB3277848E0C49F44
S11301D0C0011124822B832B8BBBD998D99ACF9140
S11301E00C9449000F931F93CF938C01C0E0F80146
S11301F081918F01882379F0CF5F0E94BE00C031C6
S113020011F480EC05C0C03291F70E94930080E89D
S11302100E945200ECCFCF911F910F91089510923C
S11302206F0010926E0080916E0090916F0006979F
S1130230F4F40E94930060916E0081E00E948400B7
S113024080E690E00E94F2002FEF83ED90E32150CE
S113025080409040E1F700C0000080916E009091D2
S11302606F00019690936F0080936E00DCCF089529
S113027084E090E090936F0080936E0080916E0014
S113028090916F0018161906D4F40E94930060919F
S11302906E0081E00E94840080E690E00E94F200FB
S11302A02FEF83ED90E3215080409040E1F700C0B0
S11302B0000080916E0090916F000197DBCF08954C
S11302C087B1806C87B98FE886B9089585B7826055
S11302D085BF8BB780648BBF08958A980E946001A4
S11302E00E9466010E9496000E9493002FEF80E70F
S11302F092E0215080409040E1F700C000007894E3
S11303000E940F010E9493000E943801F9CF1F92AE
S11303100F920FB60F9211242F933F934F935F9335
S11303206F937F938F939F93AF93BF93EF93FF93B9
S1130330CF93DF93CDB7DEB72597DEBFCDBF369A17
S11303403699FECF84B195B14AE050E0BE016F5FAB
S11303507F4F0E94DF010E9493002FEF84E39CE013
S1130360215080409040E1F700C0000086E690E014
S11303700E94F200CE0101960E94F2002FEF87EA5C
S113038091E6215080409040E1F700C000000F90BA
S11303900F900F900F900F90DF91CF91FF91EF91FD
S11303A0BF91AF919F918F917F916F915F914F9189
S11303B03F912F910F900FBE0F901F9018954532CB
S11303C0510520F4423010F00C94EA01FB01108234
S11303D0CB010895BB274A3031F4992322F4BDE2BE
S11303E0909581959F4F0C94F601BB27FB015527EF
S11303F0AA27880F991FAA1FA41710F0A41B83957E
S11304005051B9F7A05DAA3308F0A95DA1930097F4
S113041079F7B111B1931192CB010C940F02DC0165
S1130420FC01672F71917723E1F7329704C07C9127
S11304306D9370836291AE17BF07C8F30895F89463
S1050440FFCFE8
S111044248454C4C4F00414443203D200000EF
S9030000FC
