S00E00006C61625F30332E7372656325
S11300000C942A000C9492010C943F000C943F0031
S11300100C943F000C943F000C943F000C943F0060
S11300200C943F000C943F000C943F000C943F0050
S11300300C943F000C943F000C943F000C943F0040
S11300400C943F000C943F000C943F000C943F0030
S11300500C943F0011241FBECFE5D8E0DEBFCDBF16
S113006010E0A0E6B0E0ECE5F4E002C005900D92EB
S1130070AE36B107D9F70E9436010C942C020C94C9
S113008000008BB38B7F8BBB8FE99FE00197F1F767
S113009000C000008BB384608BBB0895CF93C82F3E
S11300A02FEF89EF90E0215080409040E1F700C0AD
S11300B000008BB39BB3877889238BBB2BB3277842
S11300C08C2F807F90E095958795822B9BB3892B0D
S11300D08BBB8BB38D7F8BBB0E9441008BB39BB3D7
S11300E0877889238BBB2BB327788C2F90E0880FDC
S11300F0991F880F991F880F991F822B9BB3892BF7
S11301008BBB8BB38D7F8BBB0E944100CF91089535
S1130110813039F4603168F480E8860F0E944E0023
S11301200895823031F4603220F480EC860F0E940E
S11301304E00089581E00E944E0008952FEF89EF4C
S113014090E0215080409040E1F700C000008AB365
S113015086608ABB8BB3897F8BBB8FEF8ABB8FE5AD
S11301609AEE0197F1F700C000000E949A0082E025
S11301700E944E0088E20E944E0086E00E944E00DB
S113018080E80E944E008FE00E944E000895CF93B5
S1130190C82F2FEF89EF90E0215080409040E1F785
S11301A000C000008BB39BB3877889238BBB2BB330
S11301B027788C2F807F90E095958795822B9BB331
S11301C0892B8BBB8BB38D7F8BBB8BB382608BBB3B
S11301D00E9441008BB39BB3877889238BBB2BB3DD
S11301E027788C2F90E0880F991F880F991F880F0C
S11301F0991F822B9BB3892B8BBB8BB38D7F8BBBBE
S11302008BB382608BBB0E944100CF9108950F9302
S11302101F93CF938C01C0E014C0CF5F0F5F1F4FBB
S11302200E94C700C03129F460E082E00E94880087
S113023008C0C03231F40E949A0060E081E00E945C
S11302408800F80180818111E8CFCF911F910F912F
S1130250089587B1806C87B98FE886B9089585B70A
S1130260826085BF8BB780648BBF089581B38B7F19
S113027081BB0E9429010E942F010E949E000E94BE
S11302809A002FEF80E792E0215080409040E1F700
S113029000C000007894C0E0D0E03FC0C630D10573
S11302A0D4F46C2F80E00E94880080E690E00E94E5
S11302B007012FEF83ED90E3215080409040E1F758
S11302C000C000000E949A008FE19EE40197F1F7BC
S11302D000C0000021C0C630D105F4F06AE06C1BF8
S11302E080E00E94880080E690E00E9407012FEFE2
S11302F083ED90E3215080409040E1F700C000007E
S11303006C2F80E00E9488000E949A008FE19EE496
S11303100197F1F700C000002196CA30D1050CF412
S1130320BDCFB9CF1F920F920FB60F9211242F9306
S11303303F934F935F936F937F938F939F93AF9369
S1130340BF93EF93FF93CF93DF93CDB7DEB725979A
S1130350DEBFCDBF86B1806486B93699FECF84B145
S113036095B14AE050E0BE016F5F7F4F0E94EC01FF
S11303700E949A002FEF84E39CE02150804090403B
S1130380E1F700C0000086E690E00E940701CE017C
S113039001960E9407012FEF87EA91E621508040E1
S11303A09040E1F700C000000F900F900F900F9065
S11303B00F90DF91CF91FF91EF91BF91AF919F91FA
S11303C08F917F916F915F914F913F912F910F90FA
S11303D00FBE0F901F9018954532510520F44230FE
S11303E010F00C94F701FB011082CB010895BB2798
S11303F04A3031F4992322F4BDE2909581959F4FC0
S11304000C940302BB27FB015527AA27880F991FC9
S1130410AA1FA41710F0A41B83955051B9F7A05D2F
S1130420AA3308F0A95DA193009779F7B111B193AC
S11304301192CB010C941C02DC01FC01672F719119
S11304407723E1F7329704C07C916D9370836291B6
S10F0450AE17BF07C8F30895F894FFCF5F
S111045C48656C6C6F00414443203D20000055
S9030000FC
