S01A00004C63645F4B65797061645F647269766572732E73726563DC
S11300000C942A000C9447000C9447000C9447006D
S11300100C9447000C9447000C9447000C94470040
S11300200C9447000C9447000C9447000C94470030
S11300300C9447000C9447000C9447000C94470020
S11300400C9447000C9447000C9447000C94470010
S11300500C94470011241FBECFE5D8E0DEBFCDBF0E
S113006010E0A0E6B0E0E6EBF2E002C005900D92ED
S1130070A636B107D9F720E0A6E6B0E001C01D928C
S1130080A736B207E1F70E9450010C9459010C9471
S11300900000DA988FE99FE00197F1F700C00000B3
S11300A0DA9A0895CF93C82F2FEF49EF80E02150BB
S11300B040408040E1F700C000008BB39BB38778D9
S11300C089238BBB2BB33BB39C2F907F892F90E06C
S11300D0959587952778822B832B8BBBD9980E9483
S11300E049008BB39BB3877889238BBB2BB33BB37A
S11300F0277848E0C49FC0011124822B832B8BBB3B
S1130100D998CF910C944900813021F4603150F496
S113011080E805C0823031F4603220F480EC860F30
S11301200C945200089581E00C9452002FEF89EF53
S113013090E0215080409040E1F700C000008AB375
S113014086608ABB8BB3897F8BBB8FEF8ABB8FE5BD
S11301509AEE0197F1F700C000000E94930082E03C
S11301600E94520088E20E94520086E00E945200DF
S113017080E80E9452008FE00C945200CF93C82F65
S11301802FEF49EF80E0215040408040E1F700C06C
S113019000008BB39BB3877889238BBB2BB33BB312
S11301A09C2F907F892F90E0959587952778822BB7
S11301B0832B8BBBD998D99A0E9449008BB39BB3EC
S11301C0877889238BBB2BB33BB3277848E0C49F44
S11301D0C0011124822B832B8BBBD998D99ACF9140
S11301E00C9449000F931F93CF938C01C0E0F80146
S11301F081918F01882379F0CF5F0E94BE00C031C6
S113020011F480EC05C0C03291F70E94930080E89D
S11302100E945200ECCFCF911F910F91089510923C
S11302206600809166008630D0F40E94930060914D
S1130230660081E00E94840080E690E00E94F20063
S11302402FEF83ED90E3215080409040E1F700C010
S11302500000809166008F5F80936600E2CF08956E
S113026084E080936600809166008823C1F00E9438
S113027093006091660081E00E94840080E690E033
S11302800E94F2002FEF83ED90E3215080409040D4
S1130290E1F700C00000809166008150E2CF08952C
S11302A00E9496000E940F010E9493000E94300158
S10902B0F9CFF894FFCF22
S10902B648454C4C4F00CA
S9030000FC
