:100000000C942A000C944C000C943F000C943F007C
:100010000C943F000C943F000C943F000C943F0064
:100020000C943F000C943F000C943F000C943F0054
:100030000C943F000C943F000C943F000C943F0044
:100040000C943F000C943F000C943F000C943F0034
:100050000C943F0011241FBECFE5D8E0DEBFCDBF1A
:1000600010E0A0E6B0E0ECEFF1E002C005900D92E8
:10007000A236B107D9F70E9482000C94FC000C94C0
:1000800000008A9885B7826085BF8BB780648BBF7C
:100090008FB780688FBF08951F920F920FB60F928F
:1000A00011242F933F934F935F936F937F938F937D
:1000B0009F93AF93BF93EF93FF9385B392E089270C
:1000C00085BB809160008F5F809360000E94AE00CE
:1000D000809160008A3719F480E480936000829BED
:1000E000FECFFF91EF91BF91AF919F918F917F9143
:1000F0006F915F914F913F912F910F900FBE0F9095
:100100001F90189560E875E280E090E00E949400EE
:1001100084B3836084BBA89A0E94B2008031E1F767
:100120000E9441007894FFCF9B01AC0182E08BB923
:1001300088E18AB986E880BD83E0220F331F441F1F
:10014000551F8A95D1F760E074E284EF90E00E9439
:10015000DA002150304030BD29B908955D9BFECFB3
:100160008CB908955F9BFECF8CB1089520E004C048
:100170005D9BFECFECB92F5FFC01E20FF11DE0812A
:10018000EE23B1F70895DC015F9BFECF8CB18C9319
:1001900090E008C09F5F5F9BFECF8CB1FD01E90F2F
:1001A000F11D8083FD01E90FF11D8081833291F7FC
:1001B00010820895A1E21A2EAA1BBB1BFD010DC0DF
:1001C000AA1FBB1FEE1FFF1FA217B307E407F50707
:1001D00020F0A21BB30BE40BF50B661F771F881FE3
:1001E000991F1A9469F760957095809590959B0179
:0C01F000AC01BD01CF010895F894FFCFD1
:0201FC004000C1
:00000001FF
