S01A00004C63645F4B65797061645F647269766572732E73726563DC
S11300000C942A000C9447000C9447000C9447006D
S11300100C9447000C9447000C9447000C94470040
S11300200C9447000C9447000C9447000C94470030
S11300300C9447000C9447000C9447000C94470020
S11300400C9447000C9447000C9447000C94470010
S11300500C94470011241FBECFE5D8E0DEBFCDBF0E
S113006010E0A0E6B0E0ECEEF2E002C005900D92E4
S1130070A636B107D9F720E0A6E6B0E001C01D928C
S1130080A736B207E1F70E946B010C9474010C943B
S113009000008BB38B7F8BBB89EF90E00197F1F766
S11300A000C000008BB384608BBB0895CF93C82F2E
S11300B087E893E10197F1F700C000008BB39BB38D
S11300C0877889238BBB2BB327788C2F807F90E094
S11300D095958795822B9BB3892B8BBB8BB38D7F97
S11300E08BBB0E9449008BB39BB3877889238BBB5E
S11300F02BB327788C2F90E0880F991F880F991FB6
S1130100880F991F822B9BB3892B8BBB8BB38D7F5D
S11301108BBB0E944900CF910895813039F460313E
S113012068F480E8860F0E9456000895823031F406
S1130130603220F480EC860F0E945600089581E01E
S11301400E945600089587E893E10197F1F700C0F3
S113015000008AB386608ABB8BB3897F8BBB8FEF29
S11301608ABB85EA9EE00197F1F700C000000E9477
S11301709F0082E00E94560088E20E94560086E0BA
S11301800E94560080E80E9456008FE00E945600AC
S11301900895CF93C82F87E893E10197F1F700C042
S11301A000008BB39BB3877889238BBB2BB3277851
S11301B08C2F807F90E095958795822B9BB3892B1C
S11301C08BBB8BB38D7F8BBB8BB382608BBB0E944D
S11301D049008BB39BB3877889238BBB2BB32778D8
S11301E08C2F90E0880F991F880F991F880F991FF3
S11301F0822B9BB3892B8BBB8BB38D7F8BBB8BB338
S113020082608BBB0E944900CF9108950F931F9386
S1130210CF938C01C0E014C0CF5F0F5F1F4F0E94CB
S1130220C900C03129F460E082E00E948D0008C05A
S1130230C03231F40E949F0060E081E00E948D0092
S1130240F80180818111E8CFCF911F910F9108951A
S11302501092660019C00E949F006091660081E0C0
S11302600E948D0080E690E00E9406012FE38DE05D
S113027093E0215080409040E1F700C0000080915D
S113028066008F5F8093660080916600863018F365
S1130290089584E08093660019C00E949F006091D5
S11302A0660081E00E948D0080E690E00E940601D5
S11302B02FE38DE093E0215080409040E1F700C0AF
S11302C000008091660081508093660080916600F2
S11302D08111E3CF08950E94A3000E9428010E9487
S10F02E09F000E944901F9CFF894FFCF61
S10902EC48656C6C6F0014
S9030000FC
