:100000000C942A000C943F000C943F000C943F0089
:100010000C943F000C943F000C943F000C943F0064
:100020000C943F000C943F000C943F000C943F0054
:100030000C943F000C943F000C943F000C943F0044
:100040000C943F000C943F000C943F000C943F0034
:100050000C943F0011241FBECFE5D8E0DEBFCDBF1A
:1000600010E0A0E6B0E0E2E0F8E002C005900D92FA
:10007000AC36B107D9F70E9441000C94FF030C94F1
:1000800000001F9360E875E280E090E00E94520358
:100090000E941B0380E10E946C0380E690E00E94B6
:1000A00031020E947003182F81E060E00E94FD027F
:1000B000812F90E00E944402F4CF683008F070C0B5
:1000C000843008F06DC0813009F1813030F0823029
:1000D000B1F1833009F064C04BC0413059F42AB308
:1000E00081E090E002C0880F991F6A95E2F7282B03
:1000F0002ABB08952AB381E090E002C0880F991FBF
:100100006A95E2F7809582238ABB0895413059F4BD
:1001100027B381E090E002C0880F991F6A95E2F74B
:10012000282B27BB089527B381E090E002C0880FF9
:10013000991F6A95E2F78095822387BB0895413025
:1001400059F424B381E090E002C0880F991F6A95AA
:10015000E2F7282B24BB089524B381E090E002C08D
:10016000880F991F6A95E2F78095822384BB0895D2
:10017000413059F421B381E090E002C0880F991F0B
:100180006A95E2F7282B21BB089521B381E090E026
:1001900002C0880F991F6A95E2F78095822381BB80
:1001A0000895683008F070C0843008F06DC0813068
:1001B00009F1813030F08230B1F1833009F064C050
:1001C0004BC0413059F42BB381E090E002C0880F5E
:1001D000991F6A95E2F7282B2BBB08952BB381E07A
:1001E00090E002C0880F991F6A95E2F780958223FC
:1001F0008BBB0895413059F428B381E090E002C0F0
:10020000880F991F6A95E2F7282B28BB089528B319
:1002100081E090E002C0880F991F6A95E2F780950F
:10022000822388BB0895413059F425B381E090E0E2
:1002300002C0880F991F6A95E2F7282B25BB089505
:1002400025B381E090E002C0880F991F6A95E2F71C
:100250008095822385BB0895413059F422B381E013
:1002600090E002C0880F991F6A95E2F7282B22BB05
:10027000089522B381E090E002C0880F991F6A952B
:10028000E2F78095822382BB08956830D0F48430F1
:10029000C0F4813049F0813028F0823039F0833069
:1002A00081F406C089B305C086B303C083B301C01F
:1002B00080B390E002C0959587956A95E2F78170CA
:1002C000089580E00895843080F4813049F08130D1
:1002D00028F0823039F0833041F406C06ABB0895BB
:1002E00067BB089564BB089561BB0895843080F4B2
:1002F000813049F0813028F0823039F0833041F488
:1003000006C06BBB089568BB089565BB089562BBCA
:100310000895843088F4813049F0813028F08230AB
:1003200039F0833049F406C089B3089586B308953F
:1003300083B3089580B3089580E00895DF92EF922B
:10034000FF920F931F93D82E80E061E041E00E945E
:10035000D100E0EAEE2EEFE0FE2EC7010197F1F7A3
:1003600080E062E041E00E94D100C7010197F1F70F
:100370000D2D10E0A8014071507074E0559547951F
:100380007A95E1F780E063E00E94D100A801407215
:10039000507065E0559547956A95E1F780E064E017
:1003A0000E94D100A8014074507036E055954795E1
:1003B0003A95E1F780E065E00E94D1004D2D441FA1
:1003C0004427441F80E066E00E94D100C7010197E6
:1003D000F1F780E062E040E00E94D100C7010197A0
:1003E000F1F780E062E041E00E94D100C70101978F
:1003F000F1F781E0D82280E063E04D2D0E94D1002A
:10040000A801427050705595479580E064E00E94C5
:10041000D100A80144705070559547955595479562
:1004200080E065E00E94D1000870107083E01595AF
:1004300007958A95E1F780E066E0402F0E94D100A1
:10044000C7010197F1F780E062E040E00E94D1002F
:10045000C7010197F1F71F910F91FF90EF90DF9087
:1004600008951F93CF93DF93EC0110E003C00E9427
:100470009E011F5FFE01E10FF11D80818823B9F706
:10048000DF91CF911F9108950F931F93DF93CF9327
:10049000CDB7DEB760970FB6F894DEBF0FBECDBF05
:1004A0008E010F5F1F4FB8014AE050E00E94BA036F
:1004B000C8010E94310260960FB6F894DEBF0FBEED
:1004C000CDBFCF91DF911F910F910895DF92EF92F1
:1004D000FF920F931F93D82E80E061E040E00E94CE
:1004E000D10030EAE32E3FE0F32EC7010197F1F788
:1004F00080E062E041E00E94D100C7010197F1F77E
:100500000D2D10E0A8014071507024E055954795DD
:100510002A95E1F780E063E00E94D100A8014072D3
:10052000507095E0559547959A95E1F780E064E025
:100530000E94D100A8014074507086E055954795FF
:100540008A95E1F780E065E00E94D1004D2D441FBF
:100550004427441F80E066E00E94D100C701019754
:10056000F1F780E062E040E00E94D100C70101970E
:10057000F1F780E062E041E00E94D100C7010197FD
:10058000F1F781E0D82280E063E04D2D0E94D10098
:10059000A801427050705595479580E064E00E9434
:1005A000D100A801447050705595479555954795D1
:1005B00080E065E00E94D10008701070F3E01595AE
:1005C0000795FA95E1F780E066E0402F0E94D100A0
:1005D000C7010197F1F780E062E040E00E94D1009E
:1005E000C7010197F1F71F910F91FF90EF90DF90F6
:1005F000089581E00E9466020895813039F08130CB
:1006000050F0823029F0833031F404C0605C03C0C4
:10061000605F01C0605B862F80680E94660208955B
:100620000F931F938A010E94FD02C8010E943102AC
:100630001F910F91089580E061E041E00E945D000C
:1006400080E062E041E00E945D0088EC90E020E9FB
:1006500031E0F9013197F1F70197D9F780E063E0D4
:1006600041E00E945D0080E064E041E00E945D00A6
:1006700080E065E041E00E945D0080E066E041E0EE
:100680000E945D0083E30E94660282E30E9466028C
:1006900088E20E9466028CE00E94660281E00E946D
:1006A000660208959B01AC0182E08BB988E18AB9AA
:1006B00086E880BD83E0220F331F441F551F8A95B3
:1006C000D1F760E074E284EF90E00E94980321503B
:1006D000304030BD29B908955D9BFECF8CB9089597
:1006E0005F9BFECF8CB1089520E004C05D9BFECFE0
:1006F000ECB92F5FFC01E20FF11DE081EE23B1F7B1
:100700000895DC015F9BFECF8CB18C9390E008C014
:100710009F5F5F9BFECF8CB1FD01E90FF11D8083D0
:10072000FD01E90FF11D8081833291F71082089558
:10073000A1E21A2EAA1BBB1BFD010DC0AA1FBB1FE5
:10074000EE1FFF1FA217B307E407F50720F0A21B57
:10075000B30BE40BF50B661F771F881F991F1A94C4
:1007600069F760957095809590959B01AC01BD01EE
:10077000CF010895FB019F01E8944230C4F0453257
:10078000B4F44A3029F497FB1EF4909581959F4F5D
:10079000642F77270E94EB03805D8A330CF0895D1C
:1007A0008193CB010097A1F716F45DE2519310827B
:1007B000C9010C94DB03DC01FC01672F71917723E5
:1007C000E1F7329704C07C916D9370836291AE170C
:1007D000BF07C8F30895AA1BBB1B51E107C0AA1F9E
:1007E000BB1FA617B70710F0A61BB70B881F991FD2
:1007F0005A95A9F780959095BC01CD010895F8947C
:02080000FFCF28
:0C0802002056616C75652043203D2000ED
:00000001FF
